:100000000C9448000C9471000C9471000C947100D5
:100010000C9471000C9471000C9471000C9471009C
:100020000C9471000C9471000C9471000C9471008C
:100030000C9471000C9471000C9471000C9471007C
:100040000C9471000C9471000C9471000C9471006C
:100050000C9471000C9471000C9471000C9471005C
:100060000C9471000C9471000C9471000C9471004C
:100070000C9471000C9471000C9471000C9471003C
:100080000C9471000C9471000C9471000C9471002C
:1000900011241FBECFEFCDBFDFE7DEBF0E945400AB
:0800A0000C946600F894FFCFF8
:1000A800E0E0F4E0818180688183E0E4F4E081812C
:1000B8008183E0E4F9E080818062808380818160CF
:0400C8008083FFCF63
:1000CC00EC010E9476000E947500CE010E94770020
:0600DC00CE010E9473003A
:0400E2000C9400007A
:0400E6000E94520022
:0200EA00089577
:0200EC00089575
:0200EE00089573
:00000001FF
